:100000000C9435000C945D000C945D000C945D0024
:100010000C945D000C945D000C945D000C945D00EC
:100020000C945D000C945D000C945D000C945D00DC
:100030000C945D000C945D000C945D000C945D00CC
:100040000C9449030C945D000C9417030C94F1027A
:100050000C945D000C945D000C945D000C945D00AC
:100060000C945D000C945D00F10411241FBECFEFD1
:10007000D8E0DEBFCDBF11E0A0E0B1E0E8E0FFE0F6
:1000800002C005900D92A233B107D9F721E0A2E397
:10009000B1E001C01D92A63EB207E1F710E0C5E352
:1000A000D0E004C02197FE010E947C07C433D10731
:1000B000C9F70E9493030C9482070C940000AF923E
:1000C000BF92CF92DF92EF92FF920F931F93CF9345
:1000D000DF936C017B018B01040F151FEB015E01A7
:1000E000AE18BF08C017D10759F06991D601ED913C
:1000F000FC910190F081E02DC6010995892B79F7DB
:10010000C501DF91CF911F910F91FF90EF90DF908C
:10011000CF90BF90AF900895FC01538D448D252F53
:1001200030E0842F90E0821B930B541710F0CF9691
:10013000089501970895FC01918D828D981761F0C3
:10014000A28DAE0FBF2FB11D5D968C91928D9F5FDA
:100150009F73928F90E008958FEF9FEF0895FC01B9
:10016000918D828D981731F0828DE80FF11D858D6C
:1001700090E008958FEF9FEF0895FC01918D228DFF
:10018000892F90E0805C9F4F821B91098F73992784
:10019000089589E491E00E94BD0021E0892B09F4D3
:1001A00020E0822F089580E090E0892B29F00E94C2
:1001B000C90081110C9400000895FC01A48DA80FC2
:1001C000B92FB11DA35ABF4F2C91848D90E0019699
:1001D0008F739927848FA689B7892C93A089B189B9
:1001E0008C91837080648C93938D848D981306C05A
:1001F0000288F389E02D80818F7D80830895EF92BE
:10020000FF920F931F93CF93DF93EC0181E0888FD0
:100210009B8D8C8D98131AC0E889F989808185FFA0
:1002200015C09FB7F894EE89FF896083E889F98942
:1002300080818370806480839FBF81E090E0DF9144
:10024000CF911F910F91FF90EF900895F62E0B8D97
:1002500010E00F5F1F4F0F731127E02E8C8D8E1152
:100260000CC00FB607FCFACFE889F989808185FFB9
:10027000F5CFCE010E94DD00F1CFEB8DEC0FFD2F0D
:10028000F11DE35AFF4FF0829FB7F8940B8FEA8974
:10029000FB8980818062CFCFCF93DF93EC01888D83
:1002A0008823B9F0AA89BB89E889F9898C9185FDF1
:1002B00003C0808186FD0DC00FB607FCF7CF8C917F
:1002C00085FFF2CF808185FFEDCFCE010E94DD005A
:1002D000E9CFDF91CF9108958E50806480937C00A8
:1002E00080917A00806480937A0080917A0086FD04
:1002F000FCCF809178009091790008953FB7F894F1
:100300008091370190913801A0913901B0913A0163
:1003100026B5A89B05C02F3F19F00196A11DB11D60
:100320003FBFBA2FA92F982F8827BC01CD01620F9C
:10033000711D811D911D42E0660F771F881F991F57
:100340004A95D1F70895FC0101900020E9F7319713
:10035000AF01481B590BBC0189E491E00C945F008C
:100360008F929F92AF92BF920F931F93CF93DF9381
:10037000CDB7DEB7A1970FB6F894DEBF0FBECDBFE5
:1003800019A2423008F44AE08E010F5D1F4F842EFF
:10039000912CB12CA12CA50194010E945A07E62FA3
:1003A000B901CA01EA30F4F4E05DD801EE938D01A1
:1003B000232B242B252B79F790E080E0109719F060
:1003C000CD010E94A301A1960FB6F894DEBF0FBE27
:1003D000CDBFDF91CF911F910F91BF90AF909F90B4
:1003E0008F900895E95CE1CFCF92DF92EF92FF9278
:1003F000CF93DF936B017C016DE289E491E00E9471
:10040000FF00EC0166277727CB016C197D098E0967
:100410009F094AE00E94B0018C0F9D1FDF91CF9190
:10042000FF90EF90DF90CF9008954F925F926F9280
:100430007F928F929F92AF92BF92CF92DF92EF9274
:10044000FF920F931F93CF936B017C01742EAC012D
:100450009B010E945507882399F082E191E0CF919A
:100460001F910F91FF90EF90DF90CF90BF90AF90D2
:100470009F908F907F906F905F904F900C94A3010E
:1004800046015701E894B7F82FEF3FEF4FE75FE7DA
:10049000C501B4010E94550781110DC02FEF3FEF38
:1004A0004FE75FE7C501B4010E948B0518161CF4E5
:1004B00086E191E0D4CF2FEF3FEF4FE75FE4C70134
:1004C000B6010E94E30618161CF48AE191E0C7CF3A
:1004D0002FEF3FEF4FE75FECC701B6010E948B059E
:1004E00087FDF3CF20E030E0A901C701B6010E94EB
:1004F0008B0510E000E087FF0AC06DE289E491E01F
:100500000E94FF008C01F7FAF094F7F8F094C0E035
:1005100060E070E080E09FE37C1641F020E030E096
:1005200040E251E40E949005CF5FF6CFA70196010B
:100530000E941F052B013C010E9402064B015C0139
:100540004AE00E94B0017C01E00EF11ECC23C1F113
:10055000C501B4010E9431069B01AC01C301B20187
:100560000E941E054B015C016EE289E491E00E944D
:10057000FF00E80EF91EC15018F120E030E040E223
:1005800051E4C501B4010E94E8062B013C010E9420
:1005900002064B01B12CA12C4AE0C501B4010E9416
:1005A000B001E80EF91EC501B4010E9431069B019D
:1005B000AC01C301B2010E941E054B015C01DBCFFF
:1005C000C701CF911F910F91FF90EF90DF90CF90D7
:1005D000BF90AF909F908F907F906F905F904F9063
:1005E00008951F920F920FB60F9211242F933F93ED
:1005F0004F935F936F937F938F939F93AF93BF932B
:10060000EF93FF9389E491E00E94DD00FF91EF9169
:10061000BF91AF919F918F917F916F915F914F911A
:100620003F912F910F900FBE0F901F9018951F9222
:100630000F920FB60F9211242F938F939F93EF93E6
:10064000FF93E0915901F0915A018081E0915F019F
:10065000F091600182FD1BC09081809162018F5FEB
:100660008F7320916301821741F0E0916201F0E005
:10067000E75BFE4F958F80936201FF91EF919F9111
:100680008F912F910F900FBE0F901F901895808122
:10069000F4CF1F920F920FB60F9211242F933F9316
:1006A0008F939F93AF93BF938091330190913401C7
:1006B000A0913501B09136013091320123E0230F32
:1006C0002D3758F50196A11DB11D2093320180935D
:1006D000330190933401A0933501B093360180919A
:1006E000370190913801A0913901B0913A010196FA
:1006F000A11DB11D8093370190933801A09339015A
:10070000B0933A01BF91AF919F918F913F912F91FB
:100710000F900FBE0F901F90189526E8230F02969A
:10072000A11DB11DD2CF789484B5826084BD84B5FB
:10073000816084BD85B5826085BD85B5816085BDDC
:1007400080916E00816080936E0010928100809194
:10075000810082608093810080918100816080931C
:100760008100809180008160809380008091B10041
:1007700084608093B1008091B00081608093B0006C
:1007800080917A00846080937A0080917A00826000
:1007900080937A0080917A00816080937A008091C2
:1007A0007A00806880937A001092C100E09159012C
:1007B000F0915A0182E08083E0915501F091560159
:1007C0001082E0915701F09158018FEC80831092D4
:1007D0006101E0915D01F0915E0186E08083E0912E
:1007E0005B01F0915C01808180618083E0915B011D
:1007F000F0915C01808188608083E0915B01F091E1
:100800005C01808180688083E0915B01F0915C01F4
:1008100080818F7D8083C0E0D0E08EE00E946C01FB
:10082000BC01990F880B990B0E9433062AE038E22D
:1008300040EA5BE30E94E80660934501709346013D
:1008400080934701909348018FE00E946C01BC01A6
:10085000990F880B990B0E94330628E030E240E0A4
:100860005BE30E94E806609341017093420180932C
:1008700043019093440180E10E946C01BC01990FF7
:10088000880B990B0E9433062AE038E240EA5BE3CA
:100890000E94E80620E030E048EC52E40E94E806BE
:1008A00060933D0170933E0180933F01909340011E
:1008B0008EE191E00E94A301609145017091460193
:1008C000809147019091480142E00E94150281E227
:1008D00091E00E94A30183E291E00E94A301609154
:1008E000410170914201809143019091440142E0A5
:1008F0000E94150281E291E00E94A30186E291E04C
:100900000E94A30160913D0170913E0180913F01E1
:100910009091400142E00E94150281E291E00E9424
:10092000A30189E291E00E94A3014AE062E370E042
:1009300080E090E00E94B00181E291E00E94A3017A
:100940008CE291E00E94A30160913B0170913C0117
:10095000072E000C880B990B97FF3FC00E94F401F3
:100960008FE291E00E94A30180913B0190913C01B4
:10097000019690933C0180933B010E947E016B01A4
:100980007C0188EE882E83E0982EA12CB12C0E9449
:100990007E016C197D098E099F09683E73408105AF
:1009A0009105A8F321E0821A9108A108B10888EE08
:1009B000C80E83E0D81EE11CF11C81149104A1042F
:1009C000B10429F7209709F428CF0E94C900882391
:1009D00009F423CF0E94000020CF4AE00E94B0011A
:1009E000BFCFE9E4F1E01382128288EE93E0A0E049
:1009F000B0E084839583A683B78384E091E09183FC
:100A0000808385EC90E09587848784EC90E09787DD
:100A1000868780EC90E0918B808B81EC90E0938BCB
:100A2000828B82EC90E0958B848B86EC90E0978BA8
:100A3000868B118E128E138E148E08955058BB27FC
:100A4000AA270E9436050C94A9060E949B0638F03E
:100A50000E94A20620F039F49F3F19F426F40C946A
:100A600098060EF4E095E7FB0C949206E92F0E949D
:100A7000BA0658F3BA17620773078407950720F080
:100A800079F4A6F50C94DC060EF4E0950B2EBA2F43
:100A9000A02D0B01B90190010C01CA01A001112484
:100AA000FF27591B99F0593F50F4503E68F11A1630
:100AB000F040A22F232F342F4427585FF3CF4695C1
:100AC00037952795A795F0405395C9F77EF41F16E3
:100AD000BA0B620B730B840BBAF09150A1F0FF0FAD
:100AE000BB1F661F771F881FC2F70EC0BA0F621F99
:100AF000731F841F48F4879577956795B795F79589
:100B00009E3F08F0B0CF9395880F08F09927EE0F1D
:100B10009795879508950E946E0608F481E00895E0
:100B20000E94A4050C94A9060E94A20658F00E94F7
:100B30009B0640F029F45F3F29F00C949206511176
:100B40000C94DD060C9498060E94BA0668F399236B
:100B5000B1F3552391F3951B550BBB27AA276217B9
:100B60007307840738F09F5F5F4F220F331F441FC6
:100B7000AA1FA9F335D00E2E3AF0E0E832D09150FA
:100B80005040E695001CCAF72BD0FE2F29D0660FE7
:100B9000771F881FBB1F261737074807AB07B0E82A
:100BA00009F0BB0B802DBF01FF2793585F4F3AF030
:100BB0009E3F510578F00C9492060C94DD065F3F41
:100BC000E4F3983ED4F3869577956795B795F795B6
:100BD0009F5FC9F7880F911D9695879597F908959E
:100BE000E1E0660F771F881FBB1F6217730784073A
:100BF000BA0720F0621B730B840BBA0BEE1F88F749
:100C0000E09508950E94C20688F09F5798F0B92F8A
:100C10009927B751B0F0E1F0660F771F881F991F31
:100C20001AF0BA95C9F714C0B13091F00E94DC06F1
:100C3000B1E008950C94DC06672F782F8827B85F01
:100C400039F0B93FCCF3869577956795B395D9F789
:100C50003EF490958095709561957F4F8F4F9F4F93
:100C60000895E89409C097FB3EF49095809570959F
:100C700061957F4F8F4F9F4F9923A9F0F92F96E9E8
:100C8000BB279395F695879577956795B795F1115D
:100C9000F8CFFAF4BB0F11F460FF1BC06F5F7F4FFA
:100CA0008F4F9F4F16C0882311F096E911C077230C
:100CB00021F09EE8872F762F05C0662371F096E815
:100CC000862F70E060E02AF09A95660F771F881FE4
:100CD000DAF7880F9695879597F90895990F000888
:100CE000550FAA0BE0E8FEEF16161706E807F907FE
:100CF000C0F012161306E407F50798F0621B730B99
:100D0000840B950B39F40A2661F0232B242B252B19
:100D100021F408950A2609F4A140A6958FEF811DBC
:100D2000811D089597F99F6780E870E060E008955D
:100D30009FEF80EC089500240A94161617061806F3
:100D40000906089500240A941216130614060506CF
:100D50000895092E0394000C11F4882352F0BB0F60
:100D600040F4BF2B11F460FF04C06F5F7F4F8F4FC3
:100D70009F4F089557FD9058440F551F59F05F3FFE
:100D800071F04795880F97FB991F61F09F3F79F0AD
:100D900087950895121613061406551FF2CF46952F
:100DA000F1DF08C0161617061806991FF1CF8695B1
:100DB0007105610508940895E894BB276627772795
:100DC000CB0197F908950E946E0608F48FEF0895FD
:100DD0000E94FB060C94A9060E949B0638F00E9414
:100DE000A20620F0952311F00C9492060C9498061C
:100DF00011240C94DD060E94BA0670F3959FC1F38E
:100E0000950F50E0551F629FF001729FBB27F00DB8
:100E1000B11D639FAA27F00DB11DAA1F649F66270D
:100E2000B00DA11D661F829F2227B00DA11D621F5C
:100E3000739FB00DA11D621F839FA00D611D221F16
:100E4000749F3327A00D611D231F849F600D211DFA
:100E5000822F762F6A2F11249F5750409AF0F1F07D
:100E600088234AF0EE0FFF1FBB1F661F771F881FE6
:100E700091505040A9F79E3F510580F00C94920686
:100E80000C94DD065F3FE4F3983ED4F386957795A6
:100E90006795B795F795E7959F5FC1F7FE2B880F8C
:100EA000911D9695879597F908950E946E06880B77
:100EB000990B0895A1E21A2EAA1BBB1BFD010DC0C0
:100EC000AA1FBB1FEE1FFF1FA217B307E407F507FA
:100ED00020F0A21BB30BE40BF50B661F771F881FD6
:100EE000991F1A9469F760957095809590959B016C
:100EF000AC01BD01CF010895EE0FFF1F0590F491E5
:080F0000E02D0994F894FFCFE5
:100F080000000000FF005F008C004C01BD009B004A
:100F1800AF006E616E00696E66006F766600563AC5
:100F2800002C00493A00543A00523A00433A000D66
:020F38000A00AD
:00000001FF
